:020000040800F2
:100000000080012075080008A1030008A303000870
:10001000A5030008A7030008A903000800000000CA
:10002000000000000000000000000000AB0300081A
:10003000AD03000800000000AF030008B103000892
:10004000C5080008C5080008C5080008C50800085C
:10005000C5080008C5080008C5080008C50800084C
:10006000C5080008C5080008C5080008C50800083C
:10007000C5080008C5080008C5080008C50800082C
:10008000C5080008C5080008C508000800000000F1
:10009000000000000000000000000000C50800088B
:1000A000C5080008C5080008C5080008C5080008FC
:1000B000C5080008C5080008C5080008C5080008EC
:1000C000C5080008C5080008C5080008C5080008DC
:1000D000C5080008F5020008C50800080000000077
:1000E000C5080008C5080008C50800080000000091
:1000F000000000000000000000000000C50800082B
:1001000000000000C5080008C5080008C508000870
:1001100000000000000000000000000000000000DF
:10012000C5080008C5080008C5080008C50800087B
:10013000C5080008000000000000000000000000EA
:10014000000000000000000000000000C5080008DA
:10015000C5080008C5080008C5080008C50800084B
:10016000C5080008C50800080000000000000000E5
:10017000000000000000000000000000000000007F
:1001800000000000C508000800000000000000009A
:04019000C508000896
:1001940010B5054C237833B9044B13B10448AFF3BD
:1001A40000800123237010BD000000200000000027
:1001B4001009000808B5034B1BB103490348AFF30A
:1001C400008008BD000000000400002010090008A1
:1001D40000230F2B4ED830B516E0C2681FFA83FEF9
:1001E4004FEA4E044FF0030E0EFA04FE22EA0E020A
:1001F400C260C26891F807E00EFA0CFC42EA0C02F5
:10020400C26001330F2B34D801229A400C68A243F8
:10021400F7D104684FEA430C032202FA0CF26FEAA6
:10022400020E24EA0202026002680C7904FA0CF459
:10023400224302600A79013AD2B2012ACDD88268F7
:100244000EEA0202826082684C7904FA0CF42243BA
:10025400826044689DB24FF0010E0EFA05FE24EA56
:100264000E04446044688A79AA4092B222434260F0
:10027400B3E730BD70470AB10183704741837047CB
:1002840021B1054A136B184310637047024A136B7C
:1002940023EA000010637047003802408088C0F3EE
:1002A40008007047C1F3421201F01F0C012303FA46
:1002B4000CF3012A0FD0022A11D0828A92B2134081
:1002C400090A012202FA01F1028892B20A4053B1EA
:1002D4005AB900207047828992B21340F0E7028A2B
:1002E40092B21340ECE700207047012070470000F1
:1002F40008B540F225511A48FFF7D4FF00B908BDEC
:100304001748FFF7CBFFC0B2164A1388B2F9002092
:10031400002AF4DB13F4804F0CD00A2803D0114BCD
:1003240000221A80EBE76FEA43436FEA53430D4A16
:100334001380E4E70D280DD0C3F30D020A49885455
:1003440001339BB2074A1380C72BD8D91346002226
:100354001A80D4E743F48043024A1380CFE700BFF6
:1003640000100140E40000201C00002010B500F043
:1003740027FA094A0121022000F0DEF94124642011
:1003840000F0ADF8082322460121084600F0F0F9F8
:100394000134E4B2F3E700BF280900087047FEE720
:1003A400FEE7FEE7FEE770477047704770470000BE
:1003B40082B0002301930093294A136843F48033E5
:1003C4001360274B1B6803F400330093019B013334
:1003D4000193009B1BB9019BB3F5A04FF1D1204BB6
:1003E4001B6813F4003F06D001230093009B012BEC
:1003F40004D002B0704700230093F7E7184B1A6C3F
:1004040042F080521A6417490A6842F440420A6072
:100414009A689A609A689A609A6842F480529A60DC
:10042400114A5A601A6842F080721A600C4B1B68B9
:1004340013F0007FFAD00D4B40F202721A60A3F55C
:1004440080639A6822F003029A609A6842F002027A
:100454009A60034B9B6803F00C03082BF9D1C8E79F
:10046400003802400070004019544107003C02402B
:1004740008B50D4B1A6842F001021A600021996018
:100484001A6822F0847222F480321A60074A5A6091
:100494001A6822F480221A60D960FFF789FF044B9E
:1004A4004FF000629A6008BD00380240103000240A
:1004B40000ED00E0542303FB00F04FF0E02358610B
:1004C40000229A6105221A614FF0E0231B6913F49C
:1004D400803FF9D04FF0E02304221A61704710B531
:1004E40004E04FF47A70FFF7E5FF2046441E00282D
:1004F400F7D110BDF0B583B001210220FFF7C0FE93
:1005040001248DF807408DF804408DF8064002233D
:100514008DF805304FF4807700970C4D69462846D6
:10052400FFF756FE4FF40076009669462846FFF71B
:100534004FFE224639462846FFF79DFE22463146A5
:100544002846FFF798FE03B0F0BD00BF0004024048
:1005540010B5134C01224FF400712046FFF78BFEB7
:100564000120FFF7A7FF01224FF480712046FFF717
:1005740082FE0120FFF79EFF00224FF40071204607
:10058400FFF779FE0120FFF795FF00224FF48071F9
:100594002046FFF770FE0120FFF78CFF10BD00BF5F
:1005A4000004024010B50D4C00224FF400712046A7
:1005B400FFF761FE0120FFF77DFF01224FF48071F8
:1005C4002046FFF758FE0120FFF774FF01224FF485
:1005D40000712046FFF74FFE10BD00BF000402402B
:1005E40070B50646002419E080222241154D3240A0
:1005F4004FF400712846FFF73EFE01224FF480714C
:100604002846FFF738FE0120FFF754FF00224FF47D
:1006140080712846FFF72FFE0134E4B2072CE3D99A
:10062400084C01224FF480712046FFF724FE01207C
:10063400FFF740FF00224FF480712046FFF71BFEB6
:1006440070BD00BF0004024010B50446FFF780FFF0
:100654007820FFF7C5FF0020FFF7C2FF2046FFF711
:10066400BFFFFFF79FFF10BD10B50446FFF770FFF3
:100674007820FFF7B5FF4020FFF7B2FF2046FFF7D1
:10068400AFFFFFF78FFF10BD10B50C4640F0B00070
:10069400FFF7DAFF200940F01000FFF7D5FF04F060
:1006A4000F00FFF7D1FF10BD38B5002509E0002089
:1006B400FFF7DAFF0134E4B214F0800FF7D001350C
:1006C400EDB2072D05D800212846FFF7DDFF0024F1
:1006D400F2E738BDF8B51546461E7600F6B24F1E51
:1006E400FF00FFB239463046FFF7CEFF002409E091
:1006F400A5F120030F4A02EB0313185DFFF7B4FFC3
:100704000134E4B2072CF3D9701C3946C0B2FFF7A8
:10071400BBFF00240BE0A5F1200304F10802054906
:1007240001EB0313985CFFF79FFF0134E4B2072C3D
:10073400F1D9F8BD38090008F8B507460E46154644
:10074400002406E0A119C9B23846FFF7C3FF0134FB
:10075400E4B22A5D002AF5D1F8BD0246012002E088
:1007640002FB00F019464B1E0029F9D17047000026
:100774002DE9F8438146884617461E46002419E0B1
:1007840004EB0805EDB2311B01390A20FFF7E5FF40
:10079400B7FBF0F0094AA2FB0032D20802EB820256
:1007A400A0EB42023032D2B229464846FFF792FF0C
:1007B4000134E4B2B442E3D3BDE8F883CDCCCCCC6D
:1007C40008B5002204E00133B3F57A7FFBD301328C
:1007D400B2F57A7F01D20023F6E7FFF78BFEAE2055
:1007E400FFF732FFD520FFF72FFF8020FFF72CFF04
:1007F400A820FFF729FF3F20FFF726FFD320FFF7AC
:1008040023FF0020FFF720FF4020FFF71DFFA1205A
:10081400FFF71AFFC820FFF717FFDA20FFF714FFCE
:100824001220FFF711FF8120FFF70EFFCF20FFF703
:100834000BFFD920FFF708FFF120FFF705FFDB20AE
:10084400FFF702FF3020FFF7FFFEA420FFF7FCFEB6
:10085400A620FFF7F9FE8D20FFF7F6FE1420FFF720
:10086400F3FEAF20FFF7F0FEFFF71EFF08BD000008
:10087400DFF834D00D480E490E4A002302E0D45864
:10088400C4500433C4188C42F9D30B4A0B4C0023D4
:1008940001E013600432A242FBD3FFF7E9FD00F04C
:1008A40011F8FFF763FD704700800120000000206D
:1008B40000000020300F000800000020E8000020A5
:1008C400FEE7000070B50D4D0D4C641BA41000260E
:1008D400A64209D10B4D0C4C00F018F8641BA4106F
:1008E4000026A64205D170BD55F8043B9847013651
:1008F400EEE755F8043B98470136F2E7280F000865
:10090400280F0008280F00082C0F0008F8B500BFB6
:10091400F8BC08BC9E467047F8B500BFF8BC08BCDC
:040924009E46704734
:1009280048656C6C6F2C20776F726C640000000057
:1009380000000000000000000000000000000000AF
:10094800000000F800000000000000333000000044
:1009580000100C06100C060000000000000000004B
:1009680040C07840C0784000043F04043F040400BD
:10097800007088FC08300000001820FF211E0000CD
:10098800F008F000E018000000211C031E211E00E2
:1009980000F00888700000001E2123241927211068
:1009A80010160E000000000000000000000000000B
:1009B800000000E0180402000000000718204000B2
:1009C80000020418E00000000040201807000000A2
:1009D800404080F0804040000202010F0102020006
:1009E800000000F0000000000101011F01010100EA
:1009F800000000000000000080B07000000000004F
:100A080000000000000000000001010101010101D7
:100A1800000000000000000000303000000000006E
:100A28000000000080601804006018060100000043
:100A380000E010080810E000000F102020100F0040
:100A4800001010F8000000000020203F20200000C7
:100A5800007008080888700000302824222130001F
:100A680000300888884830000018202020110E0027
:100A78000000C02010F8000000070424243F2400D0
:100A880000F80888880808000019212020110E00A5
:100A980000E0108888180000000F112020110E00B7
:100AA80000380808C83808000000003F00000000AF
:100AB8000070880808887000001C222121221C0070
:100AC80000E010080810E0000000312222110F0099
:100AD800000000C0C000000000000030300000002E
:100AE800000000800000000000008060000000009E
:100AF80000008040201008000001020408102000B7
:100B08004040404040404000040404040404040001
:100B18000008102040800000002010080402010096
:100B2800007048080808F000000000303601000096
:100B3800C030C828E810E0000718272423140B0049
:100B48000000C038E0000000203C230202273820C3
:100B580008F8888888700000203F202020110E00A7
:100B6800C03008080808380007182020201008009E
:100B780008F808080810E000203F202020100F0087
:100B880008F88888E8081000203F20202320180053
:100B980008F88888E8081000203F200003000000BB
:100BA800C03008080838000007182020221E02005C
:100BB80008F808000008F808203F210101213F201B
:100BC800000808F8080800000020203F2020000046
:100BD80000000808F8080800C08080807F00000036
:100BE80008F888C028180800203F2001263820006F
:100BF80008F8080000000000203F202020203000D6
:100C080008F8F800F8F80800203F003F003F2000EF
:100C180008F830C00008F808203F200007183F00F7
:100C2800E01008080810E0000F10202020100F0026
:100C380008F808080808F000203F21010101000019
:100C4800E01008080810E0000F18242438504F005E
:100C580008F8888888887000203F2000030C30201E
:100C680000708808080838000038202121221C005C
:100C7800180808F8080818000000203F20000000A5
:100C880008F808000008F808001F202020201F008E
:100C98000878880000C83808000007380E010000EE
:100CA800F80800F80008F800033C0700073C0300B8
:100CB800081868808068180820302C03032C30201E
:100CC8000838C800C83808000000203F200000008D
:100CD80010080808C83808002038262120201800E5
:100CE800000000FE020202000000007F40404000B9
:100CF800000C30C000000000000000010638C000F1
:100D080000020202FE000000004040407F00000098
:100D180000000402020204000000000000000000BD
:100D280000000000000000008080808080808080BB
:100D380000020204000000000000000000000000A3
:100D480000008080808000000019242222223F2099
:100D580008F8008080000000003F112020110E00DC
:100D68000000008080800000000E1120202011006B
:100D7800000000808088F800000E112020103F201D
:100D88000000808080800000001F222222221300A1
:100D9800008080F0888888180020203F20200000EC
:100DA8000000808080808000006B949494936000A1
:100DB80008F8008080800000203F210000203F20AC
:100DC80000809898000000000020203F20200000AC
:100DD800000000809898000000C08080807F00009C
:100DE80008F8000080808000203F24022D30200079
:100DF800000808F8000000000020203F2020000024
:100E08008080808080808000203F20003F20003F3D
:100E18008080008080800000203F210000203F204B
:100E28000000808080800000001F202020201F00FC
:100E3800808000808000000080FFA12020110E002B
:100E48000000008080808000000E112020A0FF801C
:100E5800808080008080800020203F2120000100C9
:100E6800000080808080800000332424242419001E
:100E7800008080E0808000000000001F202000002B
:100E88008080000000808000001F202020103F206C
:100E9800808080000080808000010E3008060100FC
:100EA80080800080008080800F300C030C300F00A1
:100EB80000808000808080000020312E0E312000CC
:100EC800808080000080808080818E7018060100FC
:100ED80000808080808080000021302C222130001A
:100EE80000000000807C020200000000003F40403B
:100EF80000000000FF00000000000000FF000000EC
:100F08000002027C800000000040403F000000001A
:100F180000060101020204040000000000000000B5
:040F2800B901000803
:040F2C009501000823
:040000050800087572
:00000001FF
