:020000040800F2
:100000000080012041070008290600082B0600088F
:100010002D0600082F060008310600080000000029
:10002000000000000000000000000000330600088F
:1000300035060008000000003706000839060008F1
:100040009107000891070008910700089107000830
:100050009107000891070008910700089107000820
:100060009107000891070008910700089107000810
:100070009107000891070008910700089107000800
:100080009107000891070008910700080000000090
:1000900000000000000000000000000091070008C0
:1000A00091070008910700089107000891070008D0
:1000B00091070008910700089107000891070008C0
:1000C00091070008910700089107000891070008B0
:1000D00091070008F10200089107000800000000E5
:1000E0009107000891070008910700080000000030
:1000F0000000000000000000000000009107000860
:10010000000000009107000891070008910700080F
:1001100000000000000000000000000000000000DF
:10012000910700089107000891070008910700084F
:10013000910700080000000000000000000000001F
:10014000000000000000000000000000910700080F
:10015000910700089107000891070008910700081F
:10016000910700089107000800000000000000004F
:10017000000000000000000000000000000000007F
:1001800000000000910700080000000000000000CF
:0401900091070008CB
:1001940010B5054C237833B9044B13B10448AFF3BD
:1001A40000800123237010BD000000200000000027
:1001B400DC07000808B5034B1BB103490348AFF340
:1001C400008008BD0000000004000020DC070008D7
:1001D40000230F2B4ED830B516E0C2681FFA83FEF9
:1001E4004FEA4E044FF0030E0EFA04FE22EA0E020A
:1001F400C260C26891F807E00EFA0CFC42EA0C02F5
:10020400C26001330F2B34D801229A400C68A243F8
:10021400F7D104684FEA430C032202FA0CF26FEAA6
:10022400020E24EA0202026002680C7904FA0CF459
:10023400224302600A79013AD2B2012ACDD88268F7
:100244000EEA0202826082684C7904FA0CF42243BA
:10025400826044689DB24FF0010E0EFA05FE24EA56
:100264000E04446044688A79AA4092B222434260F0
:10027400B3E730BD704701837047000021B1054AE0
:10028400136B184310637047024A136B23EA000090
:1002940010637047003802408088C0F3080070473C
:1002A400C1F3421201F01F0C012303FA0CF3012ADB
:1002B4000FD0022A11D0828A92B21340090A012275
:1002C40002FA01F1028892B20A4053B15AB90020ED
:1002D4007047828992B21340F0E7028A92B21340C7
:1002E400ECE70020704701207047000008B540F299
:1002F40025511A48FFF7D4FF00B908BD1748FFF786
:10030400CBFFC0B2164A1388B2F90020002AF4DBEE
:1003140013F4804F0CD00A2803D0114B00221A800A
:10032400EBE76FEA43436FEA53430D4A1380E4E774
:100334000D280DD0C3F30D020A49885401339BB232
:10034400074A1380C72BD8D9134600221A80D4E752
:1003540043F48043024A1380CFE700BF00100140FA
:10036400E40000201C000020542303FB00F04FF0A5
:10037400E023586100229A6105221A614FF0E023BC
:100384001B6913F4803FF9D04FF0E02304221A6173
:10039400704710B504E04FF47A70FFF7E5FF20468C
:1003A400441E0028F7D110BD00B58C464FF0000E56
:1003B40015E04B4B0421198302231946013BDBB2A0
:1003C4000029FAD1464B042159830A231946013BDB
:1003D400DBB20029FAD10EF1010E5FFA8EFEBEF1F6
:1003E400070F18D8802343FA0EF31CEA030FE0D05A
:1003F4003B4B042119830A231946013BDBB2002934
:10040400FAD1374B0421598302231946013BDBB24D
:100414000029FAD1DFE74FF0000C15E0304B04213E
:10042400198302231946013BDBB20029FAD12C4B74
:10043400042159830A231946013BDBB20029FAD16E
:100444000CF1010C5FFA8CFCBCF1070F17D8802368
:1004540043FA0CF31842E1D0214B042119830A23F7
:100464001946013BDBB20029FAD11D4B0421598303
:1004740002231946013BDBB20029FAD1E0E7002050
:1004840013E0174B0421198302231946013BDBB205
:100494000029FAD1124B042159830A231946013B3E
:1004A400DBB20029FAD10130C0B2072816D8802364
:1004B40003411A42E5D00A4B042119830A23194641
:1004C400013BDBB20029FAD1054B042159830223F5
:1004D4001946013BDBB20029FAD1E4E75DF804FBDD
:1004E4000004024000B583B001210220FFF7C6FEDC
:1004F40001238DF8043000238DF80630042500957F
:100504008DF8073003238DF80530454C69462046A5
:10051400FFF75EFE29462046FFF7ADFE02220121C9
:100524000020FFF741FF012202210020FFF73CFFDA
:10053400022200210120FFF737FF002202210120BF
:10054400FFF732FF012200210220FFF72DFF0022D6
:1005540001210220FFF728FF022201210020FFF7DA
:1005640023FF012202210020FFF71EFF6420FFF772
:1005740010FF012202210020FFF716FF02220021B2
:100584000120FFF711FF002202210120FFF70CFFD9
:10059400012200210220FFF707FF0022012102208F
:1005A400FFF702FF022201210020FFF7FDFE0122D6
:1005B40002210020FFF7F8FE022201210020FFF7AC
:1005C400F3FE6420FFF7E5FE022200210120FFF77D
:1005D400EBFE002202210120FFF7E6FE01220021AA
:1005E4000220FFF7E1FE002201210220FFF7DCFEDA
:1005F400022201210020FFF7D7FE01220221002060
:10060400FFF7D2FE022201210020FFF7CDFE0122D6
:1006140002210020FFF7C8FE6420FFF7BAFE7DE741
:10062400000402407047FEE7FEE7FEE7FEE770477E
:10063400704770477047000082B000230193009315
:10064400294A136843F480331360274B1B6803F46F
:1006540000330093019B01330193009B1BB9019B61
:10066400B3F5A04FF1D1204B1B6813F4003F06D023
:1006740001230093009B012B04D002B07047002398
:100684000093F7E7184B1A6C42F080521A6417492A
:100694000A6842F440420A609A689A609A689A60CA
:1006A4009A6842F480529A60114A5A601A6842F079
:1006B40080721A600C4B1B6813F0007FFAD00D4B4C
:1006C40040F202721A60A3F580639A6822F0030272
:1006D4009A609A6842F002029A60034B9B6803F0A6
:1006E4000C03082BF9D1C8E7003802400070004021
:1006F40019544107003C024008B50D4B1A6842F0FA
:1007040001021A60002199601A6822F0847222F4AE
:1007140080321A60074A5A601A6822F480221A60EA
:10072400D960FFF789FF044B4FF000629A6008BD5F
:10073400003802401030002400ED00E0DFF834D02F
:100744000D480E490E4A002302E0D458C450043325
:10075400C4188C42F9D30B4A0B4C002301E01360FC
:100764000432A242FBD3FFF7C7FF00F011F8FFF7F2
:10077400B9FE704700800120000000200000002026
:10078400FC07000800000020E8000020FEE700004D
:1007940070B50D4D0D4C641BA4100026A64209D162
:1007A4000B4D0C4C00F018F8641BA4100026A64254
:1007B40005D170BD55F8043B98470136EEE755F86E
:1007C400043B98470136F2E7F4070008F4070008F1
:1007D400F4070008F8070008F8B500BFF8BC08BC27
:1007E4009E467047F8B500BFF8BC08BC9E467047EB
:0407F400B90100083F
:0407F800950100085F
:0400000508000741A7
:00000001FF
